:020000040000FA
:0400000007EF00F016
:0A000800658254ED0CF07DEF0CF062
:10060000003F065B4F666D7D077F6F777C395E79B3
:100610007100800E506E000E516E20EE01F063509E
:10062000D9266450DA2210EE02F0DE50E126DD50C9
:10063000E22202D826EF03F00500FA6EE650FD6EC6
:10064000E650FE6EF850FF6EFA50120007C042F0FE
:1006500008C043F0000E456E0A0E446EC9EC09F066
:10066000300E4224506E000E4320516E20EE01F0F9
:100670006350D9266450DA22DECF52F0DDCF53F03A
:1006800052C0D9FF53C0DAFF02D851EF03F0050082
:10069000FA6EDE50FD6EDE50FE6EF850FF6EFA50C0
:1006A000120007C04AF008C04BF0000E4D6E0A0E53
:1006B0004C6E2BEC0AF0300E4A24506E000E4B208C
:1006C000516E20EE01F06350D9266450DA22DECF5D
:1006D00052F0DDCF53F052C0D9FF53C0DAFF02D839
:1006E0007CEF03F00500FA6EDE50FD6EDE50FE6E0C
:1006F000F850FF6EFA5012003A0E506E000E516E16
:1007000020EE01F06350D9266450DA22DECF52F099
:10071000DDCF53F052C0D9FF53C0DAFF02D89BEFB0
:1007200003F00500FA6EDE50FD6EDE50FE6EF850EE
:10073000FF6EFA50120009C042F00AC043F0000EEA
:10074000456E0A0E446EC9EC09F0300E4224506E1C
:10075000000E4320516E20EE01F06350D926645004
:10076000DA22DECF52F0DDCF53F052C0D9FF53C0B2
:10077000DAFF02D8C6EF03F00500FA6EDE50FD6E18
:10078000DE50FE6EF850FF6EFA50120009C04AF0BB
:100790000AC04BF0000E4D6E0A0E4C6E2BEC0AF0A8
:1007A000300E4A24506E000E4B20516E20EE01F0A8
:1007B0006350D9266450DA22DECF52F0DDCF53F0F9
:1007C00052C0D9FF53C0DAFF02D8F1EF03F00500A1
:1007D000FA6EDE50FD6EDE50FE6EF850FF6EFA507F
:1007E00012003A0E506E000E516E20EE01F0635072
:1007F000D9266450DA22DECF52F0DDCF53F052C05A
:10080000D9FF53C0DAFF02D810EF04F00500FA6EEA
:10081000DE50FD6EDE50FE6EF850FF6EFA50120094
:100820000BC042F00CC043F0000E456E0A0E446E41
:10083000C9EC09F0300E4224506E000E4320516E78
:1008400020EE01F06350D9266450DA22DECF52F058
:10085000DDCF53F052C0D9FF53C0DAFF02D83BEFCF
:1008600004F00500FA6EDE50FD6EDE50FE6EF850AC
:10087000FF6EFA5012000BC04AF00CC04BF0000E95
:100880004D6E0A0E4C6E2BEC0AF0300E4A24506E60
:10089000000E4B20516E20EE01F06350D9266450BB
:1008A000DA22DECF52F0DDCF53F052C0D9FF53C071
:1008B000DAFF02D866EF04F00500FA6EDE50FD6E36
:1008C000DE50FE6EF850FF6EFA501200020E12005B
:1008D00043BE76EF04F0435007E1080E425CD8B007
:1008E00074EF04F076EF04F0A0EF04F044504510EC
:1008F000D8B47DEF04F07FEF04F08FEF04F042C036
:1009000046F0010E476E462A88EF04F0D89047362D
:10091000462E86EF04F0475092128EEF05F042C04B
:1009200046F0010E476E462A98EF04F0D8904736FD
:10093000462E96EF04F04750FF0A92168EEF05F010
:1009400043BEAEEF04F0435007E1100E425CD8B056
:10095000ACEF04F0AEEF04F0DCEF04F044504510CF
:10096000D8B4B5EF04F0B7EF04F0C9EF04F042C01B
:1009700046F0F80E4626010E476E462AC2EF04F0F6
:10098000D8904736462EC0EF04F0475093128EEFB2
:1009900005F042C046F0F80E4626010E476E462A84
:1009A000D4EF04F0D8904736462ED2EF04F04750EB
:1009B000FF0A93168EEF05F043BEEAEF04F04350B2
:1009C00007E1180E425CD8B0E8EF04F0EAEF04F05B
:1009D00018EF05F044504510D8B4F1EF04F0F3EFF0
:1009E00004F005EF05F042C046F0F00E4626010E79
:1009F000476E462AFEEF04F0D8904736462EFCEFAD
:100A000004F0475094128EEF05F042C046F0F00E0D
:100A10004626010E476E462A10EF05F0D89047365D
:100A2000462E0EEF05F04750FF0A94168EEF05F0A4
:100A300043BE26EF05F0435007E1200E425CD8B0DC
:100A400024EF05F026EF05F054EF05F04450451073
:100A5000D8B42DEF05F02FEF05F041EF05F042C0BF
:100A600046F0E80E4626010E476E462A3AEF05F09C
:100A7000D8904736462E38EF05F0475095128EEF46
:100A800005F042C046F0E80E4626010E476E462AA3
:100A90004CEF05F0D8904736462E4AEF05F0475008
:100AA000FF0A95168EEF05F043BE62EF05F0435046
:100AB00007E1280E425CD8B060EF05F062EF05F068
:100AC0008EEF05F044504510D8B469EF05F06BEF98
:100AD00005F07DEF05F042C046F0E00E4626010E1F
:100AE000476E462A76EF05F0D8904736462E74EFCB
:100AF00005F0475096128EEF05F042C046F0E00E2A
:100B00004626010E476E462A88EF05F0D8904736F4
:100B1000462E86EF05F04750FF0A9616120043BE98
:100B20009DEF05F0435007E1080E425CD8B09BEF03
:100B300005F09DEF05F0C7EF05F044504510D8B41F
:100B4000A4EF05F0A6EF05F0B6EF05F042C046F0C1
:100B5000010E476E462AAFEF05F0D8904736462E75
:100B6000ADEF05F047508012B5EF06F042C046F0F9
:100B7000010E476E462ABFEF05F0D8904736462E45
:100B8000BDEF05F04750FF0A8016B5EF06F043BEF3
:100B9000D5EF05F0435007E1100E425CD8B0D3EF1B
:100BA00005F0D5EF05F003EF06F0F80E4226FF0E34
:100BB000432244504510D8B4E0EF05F0E2EF05F0D1
:100BC000F2EF05F042C046F0010E476E462AEBEF09
:100BD00005F0D8904736462EE9EF05F047508112D0
:100BE000B5EF06F042C046F0010E476E462AFBEF15
:100BF00005F0D8904736462EF9EF05F04750FF0A2A
:100C00008116B5EF06F043BE11EF06F0435007E141
:100C1000180E425CD8B00FEF06F011EF06F03FEF70
:100C200006F0F00E4226FF0E432244504510D8B481
:100C30001CEF06F01EEF06F02EEF06F042C046F065
:100C4000010E476E462A27EF06F0D8904736462E0B
:100C500025EF06F047508212B5EF06F042C046F08D
:100C6000010E476E462A37EF06F0D8904736462EDB
:100C700035EF06F04750FF0A8216B5EF06F043BE87
:100C80004DEF06F0435007E1200E425CD8B04BEF29
:100C900006F04DEF06F07BEF06F0E80E4226FF0E61
:100CA000432244504510D8B458EF06F05AEF06F0EE
:100CB0006AEF06F042C046F0010E476E462A63EF27
:100CC00006F0D8904736462E61EF06F04750831263
:100CD000B5EF06F042C046F0010E476E462A73EFAC
:100CE00006F0D8904736462E71EF06F04750FF0ABF
:100CF0008316B5EF06F043BE89EF06F0435007E1D7
:100D0000280E425CD8B087EF06F089EF06F0B5EF09
:100D100006F0E00E4226FF0E432244504510D8B4A0
:100D200094EF06F096EF06F0A6EF06F042C046F00C
:100D3000010E476E462A9FEF06F0D8904736462EA2
:100D40009DEF06F047508412B5EF06F042C046F022
:100D5000010E476E462AAFEF06F0D8904736462E72
:100D6000ADEF06F04750FF0A84161200540E566E7F
:100D7000000E576E560E506E000E516E20EE01F0B2
:100D80006150D9266250DA22DECF52F0DDCF53F027
:100D900052C0D9FF53C0DAFF02D8D9EF06F00500E0
:100DA000FA6EDE50FD6EDE50FE6EF850FF6EFA50A9
:100DB000120056C0D9FF57C0DAFF020EDE18DE104F
:100DC000D8A4E5EF06F0E7EF06F0FBEF06F00D4ADA
:100DD0000E2A08BEF5EF06F0085009E1180E075C70
:100DE000D8A0F5EF06F0F7EF06F0FBEF06F0000EE7
:100DF000086E000E076E56C0D9FF57C0DAFF200EEE
:100E0000DE18DE10D8A407EF07F009EF07F01DEF9A
:100E100007F00D4A0E2A0ABE17EF07F00A5009E143
:100E20003C0E095CD8A017EF07F019EF07F01DEF93
:100E300007F0000E0A6E000E096E56C0D9FF57C0AB
:100E4000DAFFDE5007E1020EDE18D8A42AEF07F021
:100E50002CEF07F040EF07F00D4A0E2A0CBE3AEFD8
:100E600007F00C5009E13C0E0B5CD8A03AEF07F0FC
:100E70003CEF07F040EF07F0000E0C6E000E0B6E1B
:100E800056C0D9FF57C0DAFFDE04DE10D8A44BEFFE
:100E900007F04DEF07F062EF07F00D06D8A00E0641
:100EA00008BE5CEF07F0085009E1180E075CD8A0F7
:100EB0005CEF07F05EEF07F062EF07F0000E086EE0
:100EC000170E076E56C0D9FF57C0DAFF100EDE1896
:100ED000DE10D8A46EEF07F070EF07F085EF07F093
:100EE0000D06D8A00E060ABE7FEF07F00A5009E1F2
:100EF0003D0E095CD8A07FEF07F081EF07F085EF8A
:100F000007F0000E0A6E3C0E096E56C0D9FF57C09E
:100F1000DAFFDE5006E1DE04D8A491EF07F093EF8C
:100F200007F0A8EF07F00D06D8A00E060CBEA2EF42
:100F300007F00C5009E13D0E0B5CD8A0A2EF07F0C2
:100F4000A4EF07F0A8EF07F0000E0C6E3C0E0B6E3E
:100F5000020E120016501718D8B4B1EF07F0B3EF15
:100F600007F0AAEF07F017C05FF017C060F0F4EFCA
:100F700007F05F50020DB00EF324D96E000EF4207E
:100F8000DA6E10EE04F0DE50E126DD50E222605011
:100F9000020DB00EF324D96E000EF420DA6E00EECE
:100FA00004F0DE50E926DD50EA22E650EE5CEE5019
:100FB000800A5C6EE650800A5C58D8B0E2EF07F019
:100FC000E4EF07F0E6EF07F060C05FF0010E602489
:100FD0004A6E4B6A000E4B22000E4D6E0A0E4C6E8E
:100FE0002BEC0AF04A50606E16506018D8A4FBEF44
:100FF00007F0FDEF07F0B9EF07F05F50020DB00EFC
:10100000F324D96E000EF420DA6EDECF5DF0DDCF72
:101010005EF01750020DB00EF324D96E000EF420CE
:10102000DA6E5F50020DB00EF324E16E000EF42074
:10103000E26EDECFE6FFDDCFE5FF1750020DB00E0A
:10104000F324D96E000EF420DA6E5DC0DEFF5EC0C0
:10105000DDFF1750020DB00EF324D96E000EF42000
:10106000DA6E10EE04F0DE50E126DD50E222010ED1
:10107000E3BE46EF08F0010EE35006E1E604D8B007
:1010800044EF08F046EF08F029EF08F01750020D82
:10109000B00EF324D96E000EF420DA6EDECF58F0D5
:1010A000DDCF59F058C0D9FF59C0DAFF02D863EF3D
:1010B00008F00500FA6EDE50FD6EDE50FE6EF85050
:1010C000FF6EFA501200020AD8A469EF08F06BEF25
:1010D00008F079EF08F01750020DB00EF324D96E26
:1010E000000EF420DA6EDECF50F0DDCF51F0DBECF5
:1010F0000AF0010E17244A6E4B6A000E4B22000EB6
:101100004D6E0A0E4C6E2BEC0AF04A50176EAAEF89
:1011100007F0120083CF47F00F0E9512000E4B6EB2
:10112000F80E93164BC042F0010E436E422A9BEF1D
:1011300008F0D8904336422E99EF08F043509312AE
:10114000070E81124BC042F0010E436E422AABEFF4
:1011500008F0D8904336422EA9EF08F04350FF0A1A
:101160008116000E496E000E486E484A492A49BE53
:10117000C3EF08F0495009E10A0E485CD8A0C3EF5C
:1011800008F0C5EF08F0B5EF08F0000E4A6E4AC04F
:1011900042F0010E436E422AD0EF08F0D890433659
:1011A000422ECEEF08F0435083140009D8A4DBEFA1
:1011B00008F0DDEF08F0F5EF08F04B50040DF350A8
:1011C0004A24426E010E436E000E446E422AECEF3A
:1011D00008F0D89043364436422EE9EF08F04350E9
:1011E0000312445004120FEF09F04B50040DF3505A
:1011F0004A24426E010E436E000E446E422A04EFF2
:1012000009F0D89043364436422E01EF09F0431CD2
:10121000456E441C466E45500316465004164A2A35
:10122000030E4A6416EF09F018EF09F0C7EF08F053
:101230004B2A020E4B641FEF09F021EF09F090EFEB
:1012400008F00350011807E104500218D8A42BEF4E
:1012500009F02DEF09F030EF09F0150636EF09F02F
:101260000A0E156E03C001F004C002F01550D8A498
:101270003CEF09F03EEF09F042EF09F001C005F044
:1012800002C006F047C083FF000E956E1200BFEC4F
:101290000CF042C063F043C064F0D4EC0CF042C0E8
:1012A00061F043C062F0000E4A6E000E4B6E20EEFD
:1012B00003F06350D9266450DA2202D86AEF09F0AD
:1012C0000500FA6EDE50FD6EDE50FE6EF850FF6EC9
:1012D000FA501200010E4A6E000E4B6E20EE03F023
:1012E0006150D9266250DA2202D881EF09F0050058
:1012F000FA6EDE50FD6EDE50FE6EF850FF6EFA5054
:10130000120020EE92F010EE98F0050EDBCFE3FF16
:10131000E806FCE220EE8CF010EE9EF0050EDBCF2E
:10132000E3FFE806FCE220EE86F010EEA4F0050EE6
:10133000DBCFE3FFE806FCE220EE80F010EEAAF03F
:10134000050EDBCFE3FFE806FCE238EC0DF01FEC06
:101350000DF0980E506E000E516EDBEC0AF09E0EF2
:10136000506E000E516EDBEC0AF0A40E506E000EB3
:10137000516EDBEC0AF0AA0E506E000E516EDBECE3
:101380000AF0D09EF28AF28EF28CAAEC07F007EFF8
:1013900000F0000E476E45BED2EF09F0D0EF09F025
:1013A000D8EF09F0446C451ED8B0452A010E476EAF
:1013B00043BEDFEF09F0DDEF09F0E5EF09F0426C25
:1013C000431ED8B0432A010E471A000E496E000E84
:1013D000486E44504510D8B4F0EF09F0F2EF09F030
:1013E0001AEF0AF0010E466EFAEF09F0D890443673
:1013F0004536462A45AEFFEF09F001EF0AF0F6EF59
:1014000009F0D890483649364450425C455043581C
:10141000D8A00DEF0AF00FEF0AF014EF0AF04450D5
:10142000425E4550435A4880D89045324432462E59
:1014300001EF0AF04750D8B420EF0AF022EF0AF08B
:1014400026EF0AF0486C491ED8B0492A48C042F03D
:1014500049C043F01200000E4F6E4BBE34EF0AF04D
:1014600032EF0AF03AEF0AF04A6C4B1ED8B04B2A22
:10147000010E4F6E4DBE41EF0AF03FEF0AF045EF0F
:101480000AF04C6C4D1ED8B04D2A4C504D10D8B4BB
:101490004CEF0AF04EEF0AF072EF0AF0010E4E6EBA
:1014A00056EF0AF0D8904C364D364E2A4DAE5BEFD3
:1014B0000AF05DEF0AF052EF0AF04C504A5C4D50D2
:1014C0004B58D8A066EF0AF068EF0AF06CEF0AF00C
:1014D0004C504A5E4D504B5AD8904D324C324E2EA5
:1014E0005DEF0AF04F50D8B478EF0AF07AEF0AF0C7
:1014F0007EEF0AF04A6C4B1ED8B04B2A4AC04AF025
:101500004BC04BF01200000E386E34BE8CEF0AF068
:101510008AEF0AF092EF0AF0336C341ED8B0342A06
:10152000010E386E36BE99EF0AF097EF0AF09DEF84
:101530000AF0356C361ED8B0362A35503610D8B47D
:10154000A4EF0AF0A6EF0AF0CAEF0AF0010E376E18
:10155000AEEF0AF0D89035363636372A36AEB3EFCE
:101560000AF0B5EF0AF0AAEF0AF03550335C3650B6
:101570003458D8A0BEEF0AF0C0EF0AF0C4EF0AF06A
:101580003550335E3650345AD89036323532372E95
:10159000B5EF0AF03850D8B4D0EF0AF0D2EF0AF025
:1015A000D6EF0AF0336C341ED8B0342A33C033F08F
:1015B00034C034F012001750526E536A010E1624D4
:1015C0004A6E4B6A000E4B22000E4D6E0A0E4C6E98
:1015D0002BEC0AF052504A1809E153504B18D8B47A
:1015E000F4EF0AF0F6EF0AF02CEF0BF01650020DB4
:1015F000B00EF324D96E000EF420DA6E50C0DEFF78
:1016000051C0DDFF20EE02F05050D9265150DA22B1
:10161000DECF52F0DDCF53F01650020DB00EF324A2
:10162000D96E000EF420DA6E10EE04F0DE50E126E2
:10163000DD50E2225250E6265350E522010E1624D8
:101640004A6E4B6A000E4B22000E4D6E0A0E4C6E17
:101650002BEC0AF04A50166E120017C03BF06DEFEB
:101660000BF03B50020DB00EF324D96E000EF420A7
:10167000DA6E10EE04F0DE50E126DD50E222010EBB
:10168000E3AE4EEF0BF0D10EE65C8A0EE658D8A022
:101690004CEF0BF04EEF0BF05FEF0BF03B50020DF9
:1016A000B00EF324D96E000EF420DA6E10EE04F0C2
:1016B000DE50E126DD50E222E606000EE55A010E7C
:1016C0003B24336E346A000E3422000E366E0A0E4E
:1016D000356E83EC0AF033503B6E16503B18D8A49D
:1016E00074EF0BF076EF0BF031EF0BF01200496E58
:1016F00083CF48F0000E956E000E436E220E426EB0
:10170000000E456E000E446E8FEC05F049C083FF5D
:10171000000E436E210E426E000E456E010E446EA9
:101720008FEC05F0000E436E210E426E000E456EEA
:10173000000E446E8FEC05F048C083FF020E49187E
:10174000D8B4A5EF0BF0A7EF0BF0AFEF0BF0490407
:10175000D8A4ADEF0BF0AFEF0BF0B3EF0BF0E9EC6B
:101760000CF0B5EF0BF003EC0DF01200000E436E21
:10177000220E426E000E456E000E446E68EC04F0C0
:10178000000E436E210E426E000E456E000E446E3A
:1017900068EC04F0000E956EE9EC0CF0E9EC0CF04E
:1017A000E9EC0CF0E9EC0CF0E9EC0CF0380E77EC1D
:1017B0000BF0E9EC0CF0E9EC0CF0380E77EC0BF0E8
:1017C000E9EC0CF0380E77EC0BF0380E77EC0BF000
:1017D000060E77EC0BF00C0E77EC0BF0010E77ECAD
:1017E0000BF012000D4A0E2A0DC04AF00EC04BF04D
:1017F000000E4D6E3C0E4C6E2BEC0AF04AC00BF006
:101800004BC00CF0000E456E3C0E446E0DC042F015
:101810000EC043F0C9EC09F042C04AF043C04BF09F
:10182000000E4D6E3C0E4C6E2BEC0AF04AC009F0D7
:101830004BC00AF00DC042F00EC043F00E0E456ED4
:10184000100E446EC9EC09F042C007F043C008F026
:10185000020E1200486E83CF49F0000E956E000E06
:10186000436E220E426E000E456E010E446E8FECEA
:1018700005F048C083FF000E436E210E426E000E3D
:10188000456E010E446E8FEC05F0000E436E210E86
:10189000426E000E456E000E446E8FEC05F049C09E
:1018A00083FF03EC0DF012000600E1CF3CF0E2CF25
:1018B0003DF0D9CF3EF0DACF3FF0F3CF40F0F4CF98
:1018C00041F0F2A466EF0CF068EF0CF06FEF0CF053
:1018D000F80ED76E2F0ED66E2DEC0BF0F29441C0A1
:1018E000F4FF40C0F3FF3FC0DAFF3EC0D9FF3DC068
:1018F000E2FF3CC0E1FF65921100EE0EF66E190E9C
:10190000F76E000EF86E00EE80F010EE18F0090091
:10191000F5CFEEFFE550E150FAE100EEB0F0140E25
:10192000EE6AE806FDE100EE01F0320EEE6AE8062E
:10193000FDE165906592000EF86E000147EF09F039
:10194000000E506E000E516E20EE01F06150D9264F
:101950006250DA2210EE02F0DE50E126DD50E22283
:1019600002D8BDEF0CF00500FA6EE650FD6EE650B1
:10197000FE6EF850FF6EFA501200020E12005C0E5E
:10198000206E1A0E216E800E2D6E1A0E2E6E780E9F
:101990002B6E1A0E2C6E2B0E1E6E000E1F6E1D0E61
:1019A000426E000E436E1200480E1B6E1A0E1C6E25
:1019B0008E0E296E1A0E2A6E1E0E276E1A0E286EB5
:1019C000270E196E000E1A6E180E426E000E436E30
:1019D0001200000E436E03EC0DF0432A310E4364F7
:1019E000F4EF0CF0F6EF0CF0EBEF0CF012006C0DD6
:1019F0000A000300401902000400E417E803010094
:101A00001206E8030000000E426E422A180E4264DD
:101A10000CEF0DF00EEF0DF005EF0DF012001AECCB
:101A20000DF050C0D9FF51C0DAFF42C0DEFF43C005
:101A3000DDFF120005C042F006C043F01200000EA8
:101A4000176E000E166E120033EC0DF04AC018F03F
:101A50001200000E956E4AC022F01200B6EC0BF098
:101A60004AC01DF01200070E93160F0E95121200B9
:101A7000080ED56ED58E120050502AEC0CF01200D4
:101A8000505077EC0BF0120050C083FF12008AEC2C
:081A900008F01200831E120091
:020000040020DA
:08000000FFFFFFFFFFFFFFFF00
:020000040030CA
:0E000000FF021100FF8380FF0FC00FE00F40D2
:00000001FF
