:020000040000FA
:0400000007EF00F016
:0A0008004B82CBED0CF073EF0CF00F
:10060000003F065B4F666D7D077F6F777C395E79B3
:1006100071001950800B226E19501924246E18AEE7
:1006200014EF03F016EF03F017EF03F024802450CB
:10063000D8B41DEF03F01FEF03F034EF03F02428CC
:10064000D8A425EF03F027EF03F02FEF03F0000EFF
:10065000166E000E176E000E186E000E196E188EB4
:10066000000E196E3CEF03F0000E166E000E176EB2
:10067000000E186E000E196E1D50800B236E225056
:100680002318D8B446EF03F048EF03F049EF03F026
:10069000228C1D501D24236E1CAE51EF03F053EF2E
:1006A00003F054EF03F023802350D8B45AEF03F043
:1006B0005CEF03F071EF03F02328D8A462EF03F09E
:1006C00064EF03F06CEF03F0000E1A6E000E1B6E69
:1006D000000E1C6E000E1D6E1C8E000E1D6E79EF3E
:1006E00003F0000E1A6E000E1B6E000E1C6E000E44
:1006F0001D6E2450235CD8B080EF03F082EF03F02E
:10070000A9EF03F022AC87EF03F089EF03F08BEF42
:1007100003F0800E221A24C025F023C024F025C047
:1007200023F016C025F01AC016F025C01AF017C025
:1007300025F01BC017F025C01BF018C025F01CC009
:1007400018F025C01CF019C025F01DC019F025C0F7
:100750001DF0000E256E245023C01EF01F6A1E5E81
:10076000000E1F5A1FBEBEEF03F01F5009E11A0E04
:100770001E5CD8A0BEEF03F0C0EF03F0F7EF03F06C
:100780001650171018101910D8A4C9EF03F0CCEFA9
:1007900003F0010ECDEF03F0000E256E000E166E75
:1007A000000E176E000E186E000E196E23C024F096
:1007B00000EF04F025A0DFEF03F0E1EF03F0E7EF37
:1007C00003F0D89025300109256EE9EF03F0D890A9
:1007D000253216A0EEEF03F0F0EF03F0F1EF03F097
:1007E000258E19341932183217321632242A235022
:1007F000245CD8A0FEEF03F000EF04F0DAEF03F082
:1008000022BC05EF04F007EF04F047EF04F024509A
:10081000D8A40DEF04F00FEF04F019EF04F0000E70
:10082000166E000E176E000E186E000E196E68EF31
:1008300005F01A5016261B5017221C5018221D5066
:10084000192219A026EF04F028EF04F0D4EF04F0E9
:1008500025A02DEF04F02FEF04F035EF04F0D89031
:1008600025300109256E37EF04F0D890253216A007
:100870003CEF04F03EEF04F03FEF04F0258E193416
:100880001932183217321632242AD4EF04F01A50D3
:10089000165C1B5017581C5018581950800A1E6EB1
:1008A0001D50800A1E58D8B058EF04F05AEF04F0DB
:1008B00085EF04F016501A5C1E6E17501B581F6E01
:1008C00018501C58206E19501D58216EFF0E1E2402
:1008D000166EFF0E1F20176EFF0E2020186EFF0EE3
:1008E0002120196E800E221A256C2550D8A47BEF8A
:1008F00004F07DEF04F08DEF04F0010E1626000EDB
:100900001722182219228DEF04F01A50165E1B5080
:10091000175A1C50185A1D50195A165017101810F3
:100920001910D8A496EF04F098EF04F0CDEF04F07E
:100930002550D8A49EEF04F0A0EF04F0CDEF04F012
:10094000000E166E000E176E000E186E000E196E59
:1009500068EF05F0D890163617361836193625AEDA
:10096000B4EF04F0B6EF04F0B7EF04F0168025A062
:10097000BCEF04F0BEEF04F0C2EF04F0D8802536DF
:10098000C4EF04F0D89025362450D8B4CAEF04F050
:10099000CCEF04F0CDEF04F0240618AED2EF04F053
:1009A000D4EF04F0AAEF04F0000E236E25AEDBEFC7
:1009B00004F0DDEF04F0F5EF04F025C01EF07F0E2B
:1009C0001E16D8B4E6EF04F0E8EF04F0ECEF04F004
:1009D000010E236EF5EF04F016A0F1EF04F0F3EF33
:1009E00004F0F5EF04F0E8EF04F02350D8B4FBEF87
:1009F00004F0FDEF04F028EF05F0010E1626000EBE
:100A000017221822192219A008EF05F00AEF05F0A5
:100A100028EF05F016C01EF017C01FF018C020F018
:100A200019C021F02134213220321F321E321EC063
:100A300016F01FC017F020C018F021C019F02428AC
:100A4000D8B425EF05F027EF05F028EF05F0242AAC
:100A50002428D8B42EEF05F030EF05F038EF05F07C
:100A60002450D8A436EF05F038EF05F04AEF05F032
:100A7000000E166E000E176E000E186E000E196E28
:100A80002450D8A446EF05F048EF05F04AEF05F0F2
:100A9000000E226E24A04FEF05F051EF05F054EF49
:100AA00005F0188E55EF05F0189ED8902430196E79
:100AB00022AE5DEF05F05FEF05F060EF05F0198EF7
:100AC00016C016F017C017F018C018F019C019F0AA
:100AD000120009BE77EF05F0095007E1080E085C27
:100AE000D8B075EF05F077EF05F0A1EF05F00A50EB
:100AF0000B10D8B47EEF05F080EF05F090EF05F015
:100B000008C00CF0010E0D6E0C2A89EF05F0D8908C
:100B10000D360C2E87EF05F00D5092128FEF06F078
:100B200008C00CF0010E0D6E0C2A99EF05F0D8905C
:100B30000D360C2E97EF05F00D50FF0A92168FEF31
:100B400006F009BEAFEF05F0095007E1100E085C92
:100B5000D8B0ADEF05F0AFEF05F0DDEF05F00A50CE
:100B60000B10D8B4B6EF05F0B8EF05F0CAEF05F0FA
:100B700008C00CF0F80E0C26010E0D6E0C2AC3EF07
:100B800005F0D8900D360C2EC1EF05F00D509312E4
:100B90008FEF06F008C00CF0F80E0C26010E0D6E5B
:100BA0000C2AD5EF05F0D8900D360C2ED3EF05F0BA
:100BB0000D50FF0A93168FEF06F009BEEBEF05F01C
:100BC000095007E1180E085CD8B0E9EF05F0EBEF2B
:100BD00005F019EF06F00A500B10D8B4F2EF05F04B
:100BE000F4EF05F006EF06F008C00CF0F00E0C264E
:100BF000010E0D6E0C2AFFEF05F0D8900D360C2E6D
:100C0000FDEF05F00D5094128FEF06F008C00CF0C8
:100C1000F00E0C26010E0D6E0C2A11EF06F0D89086
:100C20000D360C2E0FEF06F00D50FF0A94168FEFC5
:100C300006F009BE27EF06F0095007E1200E085C18
:100C4000D8B025EF06F027EF06F055EF06F00A5072
:100C50000B10D8B42EEF06F030EF06F042EF06F09E
:100C600008C00CF0E80E0C26010E0D6E0C2A3BEFAE
:100C700006F0D8900D360C2E39EF06F00D50951277
:100C80008FEF06F008C00CF0E80E0C26010E0D6E7A
:100C90000C2A4DEF06F0D8900D360C2E4BEF06F0D7
:100CA0000D50FF0A95168FEF06F009BE63EF06F0B0
:100CB000095007E1280E085CD8B061EF06F063EF39
:100CC00006F08FEF06F00A500B10D8B46AEF06F06A
:100CD0006CEF06F07EEF06F008C00CF0E00E0C267C
:100CE000010E0D6E0C2A77EF06F0D8900D360C2E03
:100CF00075EF06F00D5096128FEF06F008C00CF05D
:100D0000E00E0C26010E0D6E0C2A89EF06F0D8902D
:100D10000D360C2E87EF06F00D50FF0A96161200C6
:100D200009BE9EEF06F0095007E1080E085CD8B036
:100D30009CEF06F09EEF06F0C8EF06F00A500B108D
:100D4000D8B4A5EF06F0A7EF06F0B7EF06F008C09D
:100D50000CF0010E0D6E0C2AB0EF06F0D8900D3697
:100D60000C2EAEEF06F00D508012B6EF07F008C063
:100D70000CF0010E0D6E0C2AC0EF06F0D8900D3667
:100D80000C2EBEEF06F00D50FF0A8016B6EF07F0EE
:100D900009BED6EF06F0095007E1100E085CD8B086
:100DA000D4EF06F0D6EF06F004EF07F0F80E0826B1
:100DB000FF0E09220A500B10D8B4E1EF06F0E3EF62
:100DC00006F0F3EF06F008C00CF0010E0D6E0C2AD1
:100DD000ECEF06F0D8900D360C2EEAEF06F00D5031
:100DE0008112B6EF07F008C00CF0010E0D6E0C2A50
:100DF000FCEF06F0D8900D360C2EFAEF06F00D50F1
:100E0000FF0A8116B6EF07F009BE12EF07F009508E
:100E100007E1180E085CD8B010EF07F012EF07F0EA
:100E200040EF07F0F00E0826FF0E09220A500B10C3
:100E3000D8B41DEF07F01FEF07F02FEF07F008C041
:100E40000CF0010E0D6E0C2A28EF07F0D8900D362D
:100E50000C2E26EF07F00D508212B6EF07F008C0F7
:100E60000CF0010E0D6E0C2A38EF07F0D8900D36FD
:100E70000C2E36EF07F00D50FF0A8216B6EF07F082
:100E800009BE4EEF07F0095007E1200E085CD8B00C
:100E90004CEF07F04EEF07F07CEF07F0E80E082666
:100EA000FF0E09220A500B10D8B459EF07F05BEF80
:100EB00007F06BEF07F008C00CF0010E0D6E0C2A66
:100EC00064EF07F0D8900D360C2E62EF07F00D504E
:100ED0008312B6EF07F008C00CF0010E0D6E0C2A5D
:100EE00074EF07F0D8900D360C2E72EF07F00D500E
:100EF000FF0A8316B6EF07F009BE8AEF07F0095024
:100F000007E1280E085CD8B088EF07F08AEF07F0F9
:100F1000B6EF07F0E00E0826FF0E09220A500B106C
:100F2000D8B495EF07F097EF07F0A7EF07F008C0E8
:100F30000CF0010E0D6E0C2AA0EF07F0D8900D36C4
:100F40000C2E9EEF07F00D508412B6EF07F008C08C
:100F50000CF0010E0D6E0C2AB0EF07F0D8900D3694
:100F60000C2EAEEF07F00D50FF0A84161200485009
:100F70004918D8B4BEEF07F0C0EF07F0B7EF07F09D
:100F800049C03BF049C008F0096A000E0B6E0A0E1A
:100F90000A6EA5EC0AF008503C6E61EF08F03B5079
:100FA000020DB20EF324D96E000EF420DA6E10EEAC
:100FB00006F0DE50E126DD50E2223C50020DB20E7A
:100FC000F324D96E000EF420DA6E00EE06F0DE5047
:100FD000E926DD50EA22E650EE1807E1E650EE1869
:100FE000D8A4F5EF07F0F7EF07F026EF08F03C5034
:100FF000020DB20EF324D96E000EF420DA6E10EE5C
:1010000008F0DE50E126DD50E2223B50020DB20E28
:10101000F324D96E000EF420DA6E00EE08F0DE50F4
:10102000E926DD50EA22E650EE5CEE50800A386E8A
:10103000E650800A3858D8B020EF08F022EF08F0C8
:1010400026EF08F03CC03BF053EF08F03B50020D98
:10105000B20EF324D96E000EF420DA6E10EE06F014
:10106000DE50E126DD50E2223C50020DB20EF324A8
:10107000D96E000EF420DA6E00EE06F0DE50E9269E
:10108000DD50EA22E650EE5CEE50800A386EE65003
:10109000800A3858D8B04FEF08F051EF08F053EFFE
:1010A00008F022EF08F0010E3C24086E096A000ED9
:1010B0000922000E0B6E0A0E0A6EA5EC0AF008500B
:1010C0003C6E48503C18D8A468EF08F06AEF08F06E
:1010D000CFEF07F03B50020DB20EF324D96E000E95
:1010E000F420DA6EDECF39F0DDCF3AF04950020D50
:1010F000B20EF324D96E000EF420DA6E3B50020DCE
:10110000B20EF324E16E000EF420E26EDECFE6FFB5
:10111000DDCFE5FF4950020DB20EF324D96E000E6B
:10112000F420DA6E39C0DEFF3AC0DDFF4950020D0F
:10113000B20EF324D96E000EF420DA6E10EE06F033
:10114000DE50E126DD50E222010EE3BEB3EF08F0EF
:10115000010EE35006E1E604D8B0B1EF08F0B3EFBA
:1011600008F096EF08F0010E4924086E096A000E97
:101170000922000E0B6E0A0E0A6EA5EC0AF008504A
:10118000496EB7EF07F01200106E1050D8B4CBEFD5
:1011900008F0CDEF08F0EFEF08F00BBED4EF08F049
:1011A000D2EF08F0EFEF08F008C00CF009C00DF026
:1011B0000AC00EF00BC00FF00C1E0D1E0E1E0F1EEF
:1011C0000C2A000E0D220E220F220CC012F00DC0B0
:1011D00013F00EC014F00FC015F0F7EF08F008C0C0
:1011E00012F009C013F00AC014F00BC015F008503B
:1011F00009100A100B10D8A400EF09F002EF09F053
:101200000CEF09F0000E086E000E096E000E0A6E5B
:10121000000E0B6E9DEF09F0960E116E16EF09F0A1
:10122000112AD8901532143213321232000E1214D1
:101230000C6E000E13140D6E000E14140E6EFE0EC6
:1012400015140F6E0C500D100E100F10D8A42BEFAC
:1012500009F02DEF09F010EF09F03BEF09F0112A2A
:10126000010E1226000E132214221522D8901532D8
:10127000143213321232000E12140C6E000E1314BC
:101280000D6E000E14140E6EFF0E15140F6E0C5022
:101290000D100E100F10D8A450EF09F052EF09F006
:1012A0002FEF09F05AEF09F01106D89012361336D5
:1012B0001436153614BE5FEF09F061EF09F069EFDF
:1012C00009F0020E116067EF09F069EF09F054EFC1
:1012D00009F011B06EEF09F070EF09F071EF09F04D
:1012E000149ED890113211C00CF00D6A0E6A0F6A6C
:1012F0000CC00FF00E6A0D6A0C6A0C5012120D50E1
:1013000013120E5014120F5015121050D8B48BEF48
:1013100009F08DEF09F095EF09F00BBE94EF09F09D
:1013200092EF09F095EF09F0158E12C008F013C086
:1013300009F014C00AF015C00BF012004950326ECB
:10134000336A010E4824086E096A000E0922000E55
:101350000B6E0A0E0A6EA5EC0AF03250081809E16D
:1013600033500918D8B4B7EF09F0B9EF09F021EFFD
:101370000AF04850020DB20EF324D96E000EF4208C
:10138000DA6E30C0DEFF31C0DDFF20EE02F03050FB
:10139000D9263150DA22DECF1AF0DECF1BF0DECFB5
:1013A0001CF0DECF1DF04850020DB20EF324D96EB2
:1013B000000EF420DA6E10EE06F0DE50E126DD506D
:1013C000E222E6CF08F0E5CF09F0000E09BEFF0EDD
:1013D0000A6E0B6E010EC4EC08F008C016F009C0CE
:1013E00017F00AC018F00BC019F009EC03F016C092
:1013F00026F017C027F018C028F019C029F022ECF9
:101400000AF04850020DB20EF324D96E000EF420FB
:10141000DA6E10EE06F0DE50E126DD50E22226C044
:10142000E6FF27C0E5FF010E4824086E096A000E9A
:101430000922000E0B6E0A0E0A6EA5EC0AF0085087
:10144000486E1200283429342F6E2F50D8A42BEF69
:101450000AF02DEF0AF037EF0AF0000E266E000EAC
:10146000276E000E286E000E296EA4EF0AF026C02B
:101470002AF027C02BF028C02CF029C02DF0200E18
:1014800047EF0AF0D8902D322C322B322A32E82E38
:1014900042EF0AF02A502E6E288EFF0E2616FF0EFF
:1014A0002716FF0E2816000E2916960E2F5E2FBE49
:1014B0005EEF0AF05CEF0AF074EF0AF02F50800A3A
:1014C000970FD8B066EF0AF068EF0AF06AEF0AF0FB
:1014D0002DEF0AF0D89029322832273226322F3EBB
:1014E0006AEF0AF08CEF0AF01F0E2F647AEF0AF011
:1014F0007CEF0AF084EF0AF02DEF0AF0D890263640
:101500002736283629362F062F50D8A48AEF0AF01E
:101510008CEF0AF07EEF0AF02E50D8B492EF0AF06A
:1015200094EF0AF09CEF0AF0291E281E271E266C55
:10153000000E27222822292226C026F027C027F0C5
:1015400028C028F029C029F01200000E0D6E09BE37
:10155000AEEF0AF0ACEF0AF0B4EF0AF0086C091E27
:10156000D8B0092A010E0D6E0BBEBBEF0AF0B9EF21
:101570000AF0BFEF0AF00A6C0B1ED8B00B2A0A5013
:101580000B10D8B4C6EF0AF0C8EF0AF0ECEF0AF07F
:10159000010E0C6ED0EF0AF0D8900A360B360C2AEA
:1015A0000BAED5EF0AF0D7EF0AF0CCEF0AF00A50F5
:1015B000085C0B500958D8A0E0EF0AF0E2EF0AF0FF
:1015C000E6EF0AF00A50085E0B50095AD8900B3229
:1015D0000A320C2ED7EF0AF00D50D8B4F2EF0AF011
:1015E000F4EF0AF0F8EF0AF0086C091ED8B0092AE7
:1015F00008C008F009C009F01200000E066E02BE15
:1016000006EF0BF004EF0BF00CEF0BF0016C021E79
:10161000D8B0022A010E066E04BE13EF0BF011EFD4
:101620000BF017EF0BF0036C041ED8B0042A035024
:101630000410D8B41EEF0BF020EF0BF044EF0BF0CA
:10164000010E056E28EF0BF0D89003360436052AFC
:1016500004AE2DEF0BF02FEF0BF024EF0BF0035047
:10166000015C04500258D8A038EF0BF03AEF0BF0B1
:101670003EEF0BF00350015E0450025AD890043242
:101680000332052E2FEF0BF00650D8B44AEF0BF0C3
:101690004CEF0BF050EF0BF0016C021ED8B0022A99
:1016A00001C001F002C002F0120020EE9EF011EE27
:1016B0000AF0090EDBCFE3FFE806FCE220EE94F02F
:1016C00011EE14F0090EDBCFE3FFE806FCE220EE9A
:1016D0008AF011EE1EF0090EDBCFE3FFE806FCE214
:1016E00020EE80F011EE28F0090EDBCFE3FFE806D4
:1016F000FCE2E2EC0BF000EC0DF0F6EC0CF0FBEC95
:101700000CF01EEC0CF0800EA3EC0BF0000E0101AF
:10171000336F000E326F325149EC0CF00101324B45
:10172000332B33BF9DEF0BF0335109E10A0E325DCD
:10173000D8A09DEF0BF09FEF0BF08BEF0BF0B7EC09
:1017400007F007EF00F00F6E83CF0EF0000E956EDE
:10175000000E096E220E086E000E0B6E000E0A6E51
:1017600090EC06F00FC083FF000E096E210E086E8C
:10177000000E0B6E010E0A6E90EC06F0000E096E64
:10178000210E086E000E0B6E000E0A6E90EC06F035
:101790000EC083FF020E0F18D8B4D1EF0BF0D3EFB9
:1017A0000BF0DBEF0BF00F04D8A4D9EF0BF0DBEF5D
:1017B0000BF0DFEF0BF0DCEC0CF0E1EF0BF0EAEC00
:1017C0000CF01200000E096E220E086E000E0B6E59
:1017D000000E0A6E69EC05F0000E096E210E086E0F
:1017E000000E0B6E000E0A6E69EC05F0000E956E91
:1017F000DCEC0CF0DCEC0CF0DCEC0CF0DCEC0CF0D9
:10180000DCEC0CF0380EA3EC0BF0DCEC0CF0DCECB8
:101810000CF0380EA3EC0BF0DCEC0CF0380EA3EC63
:101820000BF0380EA3EC0BF0060EA3EC0BF00C0E35
:10183000A3EC0BF0010EA3EC0BF01200000E096EEE
:10184000020E086E000E0B6E000E0A6E69EC05F0BB
:10185000000E096E030E086E000E0B6E000E0A6E6F
:1018600069EC05F0000E096E040E086E000E0B6E9A
:10187000000E0A6E69EC05F0000E096E050E086E8A
:10188000000E0B6E000E0A6E69EC05F0000E956EF0
:1018900012000E6E83CF0FF0000E956E000E096ED3
:1018A000220E086E000E0B6E010E0A6E90EC06F012
:1018B0000EC083FF000E096E210E086E000E0B6E27
:1018C000010E0A6E90EC06F0000E096E210E086EF5
:1018D000000E0B6E000E0A6E90EC06F00FC083FF38
:1018E000EAEC0CF01200640EF66E190EF76E000EA4
:1018F000F86E00EE80F010EE32F00900F5CFEEFF4A
:10190000E550E150FAE100EEB2F0230EEE6AE8068F
:10191000FDE100EE3DF00E0EEE6AE806FDE14B90B3
:101920004B92000EF86E000155EF0BF049C007F026
:10193000A8EF0CF0010E0724016E026A000E0222CD
:10194000000E046E0A0E036EFDEC0AF00150076EE5
:1019500048500718D8A4AFEF0CF0B1EF0CF09AEF95
:101960000CF0120000000000C8420000000000005F
:10197000CDCC4C3F000001000000000020410100E0
:1019800000000000000020410000000000000000F6
:10199000803F000000000600F2A4D1EF0CF0D3EF6E
:1019A0000CF0DAEF0CF0B10ED76EDF0ED66E96ECBF
:1019B0000CF0F2944B921100000E096EEAEC0CF060
:1019C000092A310E0964E7EF0CF0E9EF0CF0DEEFC5
:1019D0000CF01200000E086E082A180E0864F3EFCF
:1019E0000CF0F5EF0CF0ECEF0CF01200000E496E6D
:1019F000000E486E1200D09EF28AF28EF28C120017
:081A0000080ED56ED58E120010
:020000040020DA
:08000000FFFFFFFFFFFFFFFF00
:020000040030CA
:0E000000FF021100FF8380FF0FC00FE00F40D2
:00000001FF
